:100000000C9491000C94B9000C94B9000C94B900B4
:100010000C94B9000C94B9000C94B9000C94B9007C
:100020000C94B9000C94B9000C9424030C948D0327
:100030000C94B9000C94B9000C94B9000C94B9005C
:100040000C94B9000C94B9000C94B9000C94B9004C
:100050000C94B9000C94B9000C94B9000C94DA0219
:100060000C94B9000C94B9000C94B9000C94B9002C
:100070000C94B9000C94B9000C94B9000C94B9001C
:100080000C94B9000C94B9000C94B9000C94B9000C
:100090000C94B9000C94B9000C94B9000C94B900FC
:1000A0000C94B9000C94B9000C94B900080B000230
:1000B0000202000009040000010202000005240001
:1000C0001001052401010104240206052406000193
:1000D0000705810310004009040100020A00000026
:1000E00007050202400000070583024000000403E8
:1000F000090412010002EF0201409A23118000015D
:10010000010203014164616672756974004369729A
:100110006375697420506C617967726F756E6400E5
:10012000CA0611241FBECFEFDAE0DEBFCDBF11E05B
:10013000A0E0B1E0EEE0FEE002C005900D92A63234
:10014000B107D9F721E0A6E2B1E001C01D92A93BB9
:10015000B207E1F710E0C1E9D0E004C02197FE0149
:100160000E94FF06C039D107C9F70E94CF050C9441
:1001700005070C9400009091B801911103C08FEF16
:100180009FEF08954FB7F89492E09093E900909113
:10019000F200292F30E01216130614F421E030E0AB
:1001A000232B29F084E68093B7018091F1009923F5
:1001B00039F02091F200211103C02BE62093E800D2
:1001C0004FBF9923E1F290E008952FB7F89483E0B0
:1001D0008093E9009091E800892F807295FF04C018
:1001E0009091F20080E4891B2FBF08958091AF01A8
:1001F00081110DC082E08093AB0184E08093AC015B
:100200001092AE011092AD0181E08093AF018BEAB4
:1002100091E008953FB7F8948091A7019091A801CB
:10022000A091A901B091AA0126B5A89B05C02F3FB6
:1002300019F00196A11DB11D3FBFBA2FA92F982F0C
:100240008827BC01CD01620F711D811D911D43E006
:10025000660F771F881F991F4A95D1F70895CF928F
:10026000DF92EF92FF920E940A016B017C010E94D3
:100270000A016C197D098E099F09683E734081054A
:100280009105A8F3FF90EF90DF90CF9008954091F3
:100290002801509129012091260130912701421710
:1002A0005307B4F49091E8009570E1F39091E80061
:1002B00092FD19C08093F10080912801909129014D
:1002C00001968F739927892B19F48EEF8093E8009C
:1002D00080912801909129010196909329018093A2
:1002E000280181E0089580E00895EF92FF920F9336
:1002F0001F93CF93DF93F82E192FE62E042F81E062
:10030000860F880F0E94470183E00E944701CF2D8E
:10031000D12FEC0EFD2EF11CCE15DF05B9F007FF35
:1003200013C0FE0184910E944701182F80E00E94B3
:100330004701812321968111EFCFDF91CF911F914A
:100340000F91FF90EF9008958881EDCF81E0F5CF78
:10035000DF92EF92FF920F931F93CF93DF93D82EEC
:100360008A01EB017B01E40EF51ECE15DF0559F085
:10037000D7FE12C0FE0184910E944701219681118F
:10038000F4CF0FEF1FEFC801DF91CF911F910F91B5
:10039000FF90EF90DF9008958881EECF0F931F9329
:1003A000CF93DF931F92CDB7DEB782E0898342E41B
:1003B00050E06CEA70E080E80E94A8010E94F6001C
:1003C000DC0112960D911C910115110589F0D801DF
:1003D000ED91FC910280F381E02DBE016F5F7F4FB4
:1003E000C801099597FD04C0F80100851185ECCF7F
:1003F00089810F90DF91CF911F910F9108958F9276
:100400009F92AF92BF92CF92DF92EF92FF920F93A3
:100410001F93CF93DF936C017B018A0180910B01C5
:10042000882309F457C08091B801882309F452C089
:1004300080912C0180FF05C08091E0008260809354
:10044000E000E801B12C8AEFA82E93E0892E2AE380
:10045000922E209711F4BB20B9F10E94E500811182
:1004600006C0AA94AA20B1F10E942F01F2CF8C17E6
:100470001D0611F00CF08C2F9FB7F8948092E900C4
:100480002091E80025FD02C09FBFE3CF282F30E078
:10049000C21BD30BF701815020F041914093F10032
:1004A000FACFE20EF31EBB2021F09092E800B12CAF
:1004B000EBCF8091E80085FDE7CF9092E800BB2468
:1004C000B394209709F3F3CF84E680932B011016A1
:1004D00011063CF081E090E0F6019383828310E006
:1004E00000E0C801DF91CF911F910F91FF90EF9035
:1004F000DF90CF90BF90AF909F908F900895CF9353
:10050000DF931F92CDB7DEB76983DC01ED91FC91DB
:100510000280F381E02D41E050E0BE016F5F7F4F2C
:1005200009950F90DF91CF91089583E08093E900C2
:100530008091F200882319F08AE38093E8000895FF
:100540000E94E50090E00895FC018485958597FD63
:1005500005C02FEF3FEF3587248708950C94BB002B
:10056000CF93DF93EC018C859D8597FF04C00E949B
:10057000BB009D878C878C859D85DF91CF910895E9
:10058000FC018485958597FD0BC09FB7F89482E0A8
:100590008093E9008091F2009FBF90E0019608955A
:1005A0009FB7F89482E08093E9008091F2009FBFAA
:1005B00090E008951F920F920FB60F9211242F937F
:1005C0003F938F939F93AF93BF938091A30190919B
:1005D000A401A091A501B091A6013091A20126E04D
:1005E000230F2D3758F50296A11DB11D2093A201AE
:1005F0008093A3019093A401A093A501B093A601B9
:100600008091A7019091A801A091A901B091AA01A0
:100610000196A11DB11D8093A7019093A801A093FD
:10062000A901B093AA01BF91AF919F918F913F9182
:100630002F910F900FBE0F901F90189529E8230F50
:100640000396A11DB11DD2CF1F920F920FB60F922C
:1006500011248F939F938091E1009091E100937F0B
:100660009093E10083FF0FC01092E90091E0909316
:10067000EB001092EC0092E39093ED001092B80121
:1006800098E09093F00082FF1CC093E09093E90003
:100690009091F200992319F09AE39093E8009091D9
:1006A0002B01992329F090912B01915090932B01CC
:1006B0009091B701992329F09091B70191509093AF
:1006C000B70184FF18C08091E2008E7E8160809324
:1006D000E2008091E1008F7E8093E10080912C0107
:1006E0008E7E806180932C019F918F910F900FBE21
:1006F0000F901F90189580FFF7CF8091E2008E7EBB
:1007000080618093E2008091E1008E7E8093E10021
:1007100080912C018E7E8160E5CF1F920F920FB6E3
:100720000F921124CF92DF92EF92FF920F931F93BB
:100730002F933F934F935F936F937F938F939F93E9
:10074000AF93BF93EF93FF93CF93DF93CDB7DEB714
:100750006C97DEBFCDBF1092E9008091E80083FF67
:100760002FC089E0FE017596EE2EDF2E815029F014
:100770009091F10090833196F9CF84E68093B70190
:1007800082EF8093E8008D8987FF39C09091E8005F
:1007900090FFFCCF982F907609F033C19E894F8946
:1007A000588D2F89F88C911131C0803861F5809176
:1007B0002D018093F1001092F1008EEF8093E800FC
:1007C0006C960FB6F894DEBF0FBECDBFDF91CF9110
:1007D000FF91EF91BF91AF919F918F917F916F9119
:1007E0005F914F913F912F911F910F91FF90EF904B
:1007F000DF90CF900F900FBE0F901F9018959EEF37
:100800009093E800C7CF1092F100D5CF913059F402
:100810008111D3CF4130510581F680912D018D7F1B
:1008200080932D01CACF933049F48111C6CF413056
:10083000510519F680912D018260F2CF953041F477
:100840008091E80080FFFCCF20682093E300B5CFC3
:10085000963009F0A8C00B8D1C8D22E01092E900A3
:100860001092290110922801F2122EC01092270135
:10087000109226010E94CE011F8299E09983FA828C
:1008800091E09E8390EA98879AEF998720912801BA
:1008900030912901275F3F4F3C832B838D8310923A
:1008A000E90010922901109228011093270100936A
:1008B000260149E050E0BE016F5F7F4F80E00E945B
:1008C000A8010E94CE0179CF109327010093260141
:1008D0000E94F600DC0112960D911C910115110584
:1008E00009F457C1D801ED91FC910480F581E02D08
:1008F0006E2D7D2DC8010995009709F045C1F801BD
:1009000000851185EBCFF3E0FF120EC08F8988239D
:1009100009F440C0823061F440E862E18DE091E08A
:100920000E947501811149CF81E28093EB0048CF8D
:10093000813029F440E868E084E091E0F1CF833031
:1009400099F70E94F600DC011296ED90FC908E0162
:100950000F5F1F4F6801E114F10479F0D701ED91A9
:10096000FC910680F781E02DB801C7010995080FB9
:10097000111DF701E084F184EECFD8011C92F6013D
:1009800001900020E9F73197BF016C197D0940E023
:10099000C601C6CF6EEE70E0FB01449150E080E8E6
:1009A0000E94A8010ACF973009F4BECF983021F4F5
:1009B00081E08093F10001CF993009F0FECE837081
:1009C00009F0B2CFEFE1F1E081E031E096E321916F
:1009D000222371F08093E9003093EB00DF0111973F
:1009E0002C912093EC009093ED008F5F873079F786
:1009F0008EE78093EA001092EA008F898093B80115
:100A0000DCCE8B8D9C8D1092E90010922901109202
:100A100028019093270180932601898D81119AC026
:100A20008E899D89913A49F4813209F07DCF47E062
:100A300050E064E071E080E0B3CF913209F074CF10
:100A4000833269F48F89988DB0E0A0E08093000133
:100A500090930101A0930201B0930301AECE8032C6
:100A6000A9F48091E80082FFFCCF88E0E4E0F1E0A7
:100A7000815029F09091F10090833196F9CF84E66E
:100A80008093B7018BEF8093E80097CE823209F014
:100A900094CE8F8980930B01EEEFFFE785919491BF
:100AA0008B3F9C4D51F1E0E0F8E080910401909182
:100AB0000501A0910601B0910701803B9440A1057A
:100AC000B105F1F480910B0180FD1AC0EE3F8AE080
:100AD000F80789F587E797E7918380838091600025
:100AE00080932A0188E19BE00FB6F894A895809343
:100AF00060000FBE9093600060CEEEEFFAE0D5CFBD
:100B0000808191818737974709F057CEA8958091CA
:100B1000600088618093600080912A01809360006A
:100B2000EE3F2AE0F20789F08091FE0A9091FF0AD9
:100B30009183808342CE808191818737980751F2DB
:100B40009093FF0A8093FE0AC5CF1092FF0A10927D
:100B5000FE0A33CE0E94F600DC0112960D911C9124
:100B60000115110509F4E0CED801ED91FC91019039
:100B7000F081E02D6E2D7D2DC801099581111DCECE
:100B8000F80100851185ECCF181619060CF415CE66
:100B9000CBCEF1E0FF12B7CE62EF70E0FDCE7894DD
:100BA00084B5826084BD84B5816084BD85B5826072
:100BB00085BD85B5816085BD80916E008160809323
:100BC0006E0010928100809181008260809381008C
:100BD000809181008160809381008091800081609C
:100BE0008093800080919100826080939100809139
:100BF000910081608093910080919000816080934A
:100C000090008091C10084608093C1008091C100F8
:100C100082608093C1008091C10081608093C10097
:100C20008091C30081608093C3008091C000826086
:100C30008093C0008091C20081608093C200809147
:100C40007A00846080937A0080917A008260809339
:100C50007A0080917A008E7F80937A0080917A006A
:100C6000806880937A001092B80110922D01109242
:100C70002C018091D70081608093D70080EA809317
:100C8000D80089B58F7E89BD89B5826089BD09B4D8
:100C900000FEFDCF0E942F018091D8008F7C8061E3
:100CA0008093D8008091E000807F8093E000809165
:100CB000E1008E7E8093E1008DE08093E2008FEF73
:100CC0009FEF90935F0180935E0100E010E082E56A
:100CD00091E00E94C002892B99F182E591E00E9487
:100CE000A4022091500130915101A9014F5F5F4F43
:100CF0005093510140935001205D3E4FF901808394
:100D00004032510511F08111E2CF60912E017091B6
:100D10002F0180E391E00E94E70680912E019091DF
:100D20002F012091500130915101820F931F909318
:100D30002F0180932E011092510110925001C7CFC4
:100D400082E591E00E94C002EC01892BE1F48091E0
:100D50002E0190912F0118161906ACF480912E01E6
:100D600090912F01C817D90754F4CE010E94DF06D5
:100D7000682F82E591E00E947F022196EFCF1092CA
:100D80002F0110922E010115110509F4A0CF0E9428
:100D900000009DCFE2E5F1E01382128288EE93E03D
:100DA000A0E0B0E084839583A683B78380E191E0DF
:100DB000918380838FEF9FEF958784870895F999BA
:100DC000FECF92BD81BDF89A992780B50895DC01C8
:100DD000CB0103C02D910E94F20641505040D0F744
:100DE0000895262FF999FECF1FBA92BD81BD20BD6F
:100DF0000FB6F894FA9AF99A0FBE01960895EE0F7D
:0E0E0000FF1F0590F491E02D0994F894FFCFA8
:100E0E00FFFFFFFF00E100000000000000000000F7
:100E1E007F02FF01A0029502C002A402B00200C12F
:060E2E00808100000000BD
:00000001FF
